{
  "contractName": "TaoDAONFTMarketplace",
  "abi": [
    {
      "inputs": [
        {
          "internalType": "address",
          "name": "_TaoDAONFTContractAddress",
          "type": "address"
        },
        {
          "internalType": "address",
          "name": "_PaymentGatewayAddress",
          "type": "address"
        },
        {
          "internalType": "address payable",
          "name": "_publisherWallet",
          "type": "address"
        }
      ],
      "stateMutability": "nonpayable",
      "type": "constructor"
    },
    {
      "anonymous": false,
      "inputs": [
        {
          "indexed": true,
          "internalType": "address",
          "name": "previousOwner",
          "type": "address"
        },
        {
          "indexed": true,
          "internalType": "address",
          "name": "newOwner",
          "type": "address"
        }
      ],
      "name": "OwnershipTransferred",
      "type": "event"
    },
    {
      "anonymous": false,
      "inputs": [
        {
          "indexed": false,
          "internalType": "address",
          "name": "tokenAddress",
          "type": "address"
        },
        {
          "indexed": false,
          "internalType": "address",
          "name": "seller",
          "type": "address"
        },
        {
          "indexed": false,
          "internalType": "uint256",
          "name": "price",
          "type": "uint256"
        },
        {
          "indexed": false,
          "internalType": "uint256",
          "name": "tokenId",
          "type": "uint256"
        },
        {
          "indexed": false,
          "internalType": "uint256",
          "name": "offerId",
          "type": "uint256"
        },
        {
          "indexed": false,
          "internalType": "bool",
          "name": "isSold",
          "type": "bool"
        }
      ],
      "name": "artworkAdded",
      "type": "event"
    },
    {
      "anonymous": false,
      "inputs": [
        {
          "indexed": false,
          "internalType": "address",
          "name": "owner",
          "type": "address"
        },
        {
          "indexed": false,
          "internalType": "uint256",
          "name": "tokenId",
          "type": "uint256"
        },
        {
          "indexed": false,
          "internalType": "address",
          "name": "tokenAddress",
          "type": "address"
        }
      ],
      "name": "artworkRemoved",
      "type": "event"
    },
    {
      "anonymous": false,
      "inputs": [
        {
          "indexed": false,
          "internalType": "address",
          "name": "tokenAddress",
          "type": "address"
        },
        {
          "indexed": false,
          "internalType": "address",
          "name": "buyer",
          "type": "address"
        },
        {
          "indexed": false,
          "internalType": "uint256",
          "name": "price",
          "type": "uint256"
        },
        {
          "indexed": false,
          "internalType": "uint256",
          "name": "tokenId",
          "type": "uint256"
        },
        {
          "indexed": false,
          "internalType": "uint256",
          "name": "offerId",
          "type": "uint256"
        }
      ],
      "name": "artworkSold",
      "type": "event"
    },
    {
      "anonymous": false,
      "inputs": [
        {
          "indexed": false,
          "internalType": "address",
          "name": "owner",
          "type": "address"
        },
        {
          "indexed": false,
          "internalType": "uint256",
          "name": "price",
          "type": "uint256"
        },
        {
          "indexed": false,
          "internalType": "address",
          "name": "tokenAddress",
          "type": "address"
        },
        {
          "indexed": false,
          "internalType": "uint256",
          "name": "tokenId",
          "type": "uint256"
        },
        {
          "indexed": false,
          "internalType": "uint256",
          "name": "offerId",
          "type": "uint256"
        }
      ],
      "name": "priceChanged",
      "type": "event"
    },
    {
      "inputs": [
        {
          "internalType": "uint256",
          "name": "",
          "type": "uint256"
        }
      ],
      "name": "offers",
      "outputs": [
        {
          "internalType": "address payable",
          "name": "seller",
          "type": "address"
        },
        {
          "internalType": "address",
          "name": "tokenAddress",
          "type": "address"
        },
        {
          "internalType": "uint256",
          "name": "price",
          "type": "uint256"
        },
        {
          "internalType": "uint256",
          "name": "offerId",
          "type": "uint256"
        },
        {
          "internalType": "uint256",
          "name": "tokenId",
          "type": "uint256"
        },
        {
          "internalType": "bool",
          "name": "isSold",
          "type": "bool"
        },
        {
          "internalType": "bool",
          "name": "active",
          "type": "bool"
        }
      ],
      "stateMutability": "view",
      "type": "function",
      "constant": true
    },
    {
      "inputs": [],
      "name": "owner",
      "outputs": [
        {
          "internalType": "address",
          "name": "",
          "type": "address"
        }
      ],
      "stateMutability": "view",
      "type": "function",
      "constant": true
    },
    {
      "inputs": [],
      "name": "renounceOwnership",
      "outputs": [],
      "stateMutability": "nonpayable",
      "type": "function"
    },
    {
      "inputs": [
        {
          "internalType": "address",
          "name": "newOwner",
          "type": "address"
        }
      ],
      "name": "transferOwnership",
      "outputs": [],
      "stateMutability": "nonpayable",
      "type": "function"
    },
    {
      "inputs": [
        {
          "internalType": "uint256",
          "name": "price",
          "type": "uint256"
        },
        {
          "internalType": "uint256",
          "name": "tokenId",
          "type": "uint256"
        },
        {
          "internalType": "address",
          "name": "tokenAddress",
          "type": "address"
        }
      ],
      "name": "setOffer",
      "outputs": [],
      "stateMutability": "nonpayable",
      "type": "function"
    },
    {
      "inputs": [
        {
          "internalType": "uint256",
          "name": "newPrice",
          "type": "uint256"
        },
        {
          "internalType": "uint256",
          "name": "tokenId",
          "type": "uint256"
        },
        {
          "internalType": "address",
          "name": "tokenAddress",
          "type": "address"
        }
      ],
      "name": "changePrice",
      "outputs": [],
      "stateMutability": "nonpayable",
      "type": "function"
    },
    {
      "inputs": [
        {
          "internalType": "uint256",
          "name": "tokenId",
          "type": "uint256"
        },
        {
          "internalType": "address",
          "name": "tokenAddress",
          "type": "address"
        }
      ],
      "name": "removeOffer",
      "outputs": [],
      "stateMutability": "nonpayable",
      "type": "function"
    },
    {
      "inputs": [
        {
          "internalType": "uint256",
          "name": "tokenId",
          "type": "uint256"
        },
        {
          "internalType": "address",
          "name": "tokenAddress",
          "type": "address"
        }
      ],
      "name": "buyArt",
      "outputs": [],
      "stateMutability": "payable",
      "type": "function",
      "payable": true
    }
  ],
  "bytecode": "0x60806040523480156200001157600080fd5b5060405162002cbf38038062002cbf833981810160405281019062000037919062000358565b6000620000496200015360201b60201c565b9050806000806101000a81548173ffffffffffffffffffffffffffffffffffffffff021916908373ffffffffffffffffffffffffffffffffffffffff1602179055508073ffffffffffffffffffffffffffffffffffffffff16600073ffffffffffffffffffffffffffffffffffffffff167f8be0079c531659141344cd1fd0a4f28419497f9722a3daafe3b4186f6b6457e060405160405180910390a350620000f8836200015b60201b60201c565b62000109826200022e60201b60201c565b80600360006101000a81548173ffffffffffffffffffffffffffffffffffffffff021916908373ffffffffffffffffffffffffffffffffffffffff1602179055505050506200049f565b600033905090565b6200016b6200015360201b60201c565b73ffffffffffffffffffffffffffffffffffffffff16620001916200030160201b60201c565b73ffffffffffffffffffffffffffffffffffffffff1614620001ea576040517f08c379a0000000000000000000000000000000000000000000000000000000008152600401620001e190620003f0565b60405180910390fd5b80600160006101000a81548173ffffffffffffffffffffffffffffffffffffffff021916908373ffffffffffffffffffffffffffffffffffffffff16021790555050565b6200023e6200015360201b60201c565b73ffffffffffffffffffffffffffffffffffffffff16620002646200030160201b60201c565b73ffffffffffffffffffffffffffffffffffffffff1614620002bd576040517f08c379a0000000000000000000000000000000000000000000000000000000008152600401620002b490620003f0565b60405180910390fd5b80600260006101000a81548173ffffffffffffffffffffffffffffffffffffffff021916908373ffffffffffffffffffffffffffffffffffffffff16021790555050565b60008060009054906101000a900473ffffffffffffffffffffffffffffffffffffffff16905090565b6000815190506200033b816200046b565b92915050565b600081519050620003528162000485565b92915050565b6000806000606084860312156200036e57600080fd5b60006200037e868287016200032a565b935050602062000391868287016200032a565b9250506040620003a48682870162000341565b9150509250925092565b6000620003bd60208362000412565b91507f4f776e61626c653a2063616c6c6572206973206e6f7420746865206f776e65726000830152602082019050919050565b600060208201905081810360008301526200040b81620003ae565b9050919050565b600082825260208201905092915050565b600062000430826200044b565b9050919050565b600062000444826200044b565b9050919050565b600073ffffffffffffffffffffffffffffffffffffffff82169050919050565b620004768162000423565b81146200048257600080fd5b50565b620004908162000437565b81146200049c57600080fd5b50565b61281080620004af6000396000f3fe60806040526004361061007b5760003560e01c80638da5cb5b1161004e5780638da5cb5b1461012c578063a7ac187d14610157578063a8c7e55314610173578063f2fde38b1461019c5761007b565b80632cbb7de81461008057806367865fc9146100a9578063715018a6146100d25780638a72ea6a146100e9575b600080fd5b34801561008c57600080fd5b506100a760048036038101906100a29190611d01565b6101c5565b005b3480156100b557600080fd5b506100d060048036038101906100cb9190611d3d565b610411565b005b3480156100de57600080fd5b506100e76109c6565b005b3480156100f557600080fd5b50610110600480360381019061010b9190611cd8565b610b00565b604051610123979695949392919061222b565b60405180910390f35b34801561013857600080fd5b50610141610bac565b60405161014e91906121be565b60405180910390f35b610171600480360381019061016c9190611d01565b610bd5565b005b34801561017f57600080fd5b5061019a60048036038101906101959190611d3d565b6112a1565b005b3480156101a857600080fd5b506101c360048036038101906101be9190611c34565b61164a565b005b3373ffffffffffffffffffffffffffffffffffffffff16600460056000858152602001908152602001600020600301548154811061022c577f4e487b7100000000000000000000000000000000000000000000000000000000600052603260045260246000fd5b906000526020600020906006020160000160009054906101000a900473ffffffffffffffffffffffffffffffffffffffff1673ffffffffffffffffffffffffffffffffffffffff16146102b4576040517f08c379a00000000000000000000000000000000000000000000000000000000081526004016102ab906124e1565b60405180910390fd5b60006004600560008581526020019081526020016000206003015481548110610306577f4e487b7100000000000000000000000000000000000000000000000000000000600052603260045260246000fd5b906000526020600020906006020160050160016101000a81548160ff02191690831515021790555060056000838152602001908152602001600020600080820160006101000a81549073ffffffffffffffffffffffffffffffffffffffff02191690556001820160006101000a81549073ffffffffffffffffffffffffffffffffffffffff02191690556002820160009055600382016000905560048201600090556005820160006101000a81549060ff02191690556005820160016101000a81549060ff021916905550507fb145ac242c9dc4c9768587b48644186e79bbba78ba09f97b8ac28ef7e88bfe4933838360405161040593929190612377565b60405180910390a15050565b3373ffffffffffffffffffffffffffffffffffffffff16600160009054906101000a900473ffffffffffffffffffffffffffffffffffffffff1673ffffffffffffffffffffffffffffffffffffffff16636352211e846040518263ffffffff1660e01b81526004016104839190612581565b60206040518083038186803b15801561049b57600080fd5b505afa1580156104af573d6000803e3d6000fd5b505050506040513d601f19601f820116820180604052508101906104d39190611c5d565b73ffffffffffffffffffffffffffffffffffffffff1614610529576040517f08c379a000000000000000000000000000000000000000000000000000000000815260040161052090612541565b60405180910390fd5b60011515600160009054906101000a900473ffffffffffffffffffffffffffffffffffffffff1673ffffffffffffffffffffffffffffffffffffffff1663e985e9c533306040518363ffffffff1660e01b815260040161058a92919061229a565b60206040518083038186803b1580156105a257600080fd5b505afa1580156105b6573d6000803e3d6000fd5b505050506040513d601f19601f820116820180604052508101906105da9190611caf565b15151461061c576040517f08c379a0000000000000000000000000000000000000000000000000000000008152600401610613906124a1565b60405180910390fd5b6103e8831015610661576040517f08c379a000000000000000000000000000000000000000000000000000000000815260040161065890612501565b60405180910390fd5b600015156005600084815260200190815260200160002060050160019054906101000a900460ff161515146106cb576040517f08c379a00000000000000000000000000000000000000000000000000000000081526004016106c290612481565b60405180910390fd5b6000600480549050905060006040518060e001604052803373ffffffffffffffffffffffffffffffffffffffff1681526020018473ffffffffffffffffffffffffffffffffffffffff168152602001868152602001838152602001858152602001600015158152602001600115158152509050806005600086815260200190815260200160002060008201518160000160006101000a81548173ffffffffffffffffffffffffffffffffffffffff021916908373ffffffffffffffffffffffffffffffffffffffff16021790555060208201518160010160006101000a81548173ffffffffffffffffffffffffffffffffffffffff021916908373ffffffffffffffffffffffffffffffffffffffff16021790555060408201518160020155606082015181600301556080820151816004015560a08201518160050160006101000a81548160ff02191690831515021790555060c08201518160050160016101000a81548160ff021916908315150217905550905050600481908060018154018082558091505060019003906000526020600020906006020160009091909190915060008201518160000160006101000a81548173ffffffffffffffffffffffffffffffffffffffff021916908373ffffffffffffffffffffffffffffffffffffffff16021790555060208201518160010160006101000a81548173ffffffffffffffffffffffffffffffffffffffff021916908373ffffffffffffffffffffffffffffffffffffffff16021790555060408201518160020155606082015181600301556080820151816004015560a08201518160050160006101000a81548160ff02191690831515021790555060c08201518160050160016101000a81548160ff02191690831515021790555050507fe4fc1df94f958435faa33a1b9ea91d711e8057731912c8165df808a53a57145d600160009054906101000a900473ffffffffffffffffffffffffffffffffffffffff163387878660006040516109b796959493929190612316565b60405180910390a15050505050565b6109ce6117f3565b73ffffffffffffffffffffffffffffffffffffffff166109ec610bac565b73ffffffffffffffffffffffffffffffffffffffff1614610a42576040517f08c379a0000000000000000000000000000000000000000000000000000000008152600401610a39906124c1565b60405180910390fd5b600073ffffffffffffffffffffffffffffffffffffffff1660008054906101000a900473ffffffffffffffffffffffffffffffffffffffff1673ffffffffffffffffffffffffffffffffffffffff167f8be0079c531659141344cd1fd0a4f28419497f9722a3daafe3b4186f6b6457e060405160405180910390a360008060006101000a81548173ffffffffffffffffffffffffffffffffffffffff021916908373ffffffffffffffffffffffffffffffffffffffff160217905550565b60048181548110610b1057600080fd5b90600052602060002090600602016000915090508060000160009054906101000a900473ffffffffffffffffffffffffffffffffffffffff16908060010160009054906101000a900473ffffffffffffffffffffffffffffffffffffffff16908060020154908060030154908060040154908060050160009054906101000a900460ff16908060050160019054906101000a900460ff16905087565b60008060009054906101000a900473ffffffffffffffffffffffffffffffffffffffff16905090565b6000600560008481526020019081526020016000206040518060e00160405290816000820160009054906101000a900473ffffffffffffffffffffffffffffffffffffffff1673ffffffffffffffffffffffffffffffffffffffff1673ffffffffffffffffffffffffffffffffffffffff1681526020016001820160009054906101000a900473ffffffffffffffffffffffffffffffffffffffff1673ffffffffffffffffffffffffffffffffffffffff1673ffffffffffffffffffffffffffffffffffffffff1681526020016002820154815260200160038201548152602001600482015481526020016005820160009054906101000a900460ff161515151581526020016005820160019054906101000a900460ff1615151515815250509050346004826060015181548110610d36577f4e487b7100000000000000000000000000000000000000000000000000000000600052603260045260246000fd5b90600052602060002090600602016002015414610d88576040517f08c379a0000000000000000000000000000000000000000000000000000000008152600401610d7f90612461565b60405180910390fd5b3373ffffffffffffffffffffffffffffffffffffffff166004826060015181548110610ddd577f4e487b7100000000000000000000000000000000000000000000000000000000600052603260045260246000fd5b906000526020600020906006020160000160009054906101000a900473ffffffffffffffffffffffffffffffffffffffff1673ffffffffffffffffffffffffffffffffffffffff161415610e66576040517f08c379a0000000000000000000000000000000000000000000000000000000008152600401610e5d90612441565b60405180910390fd5b600115156004826060015181548110610ea8577f4e487b7100000000000000000000000000000000000000000000000000000000600052603260045260246000fd5b906000526020600020906006020160050160019054906101000a900460ff16151514610f09576040517f08c379a0000000000000000000000000000000000000000000000000000000008152600401610f0090612521565b60405180910390fd5b60056000848152602001908152602001600020600080820160006101000a81549073ffffffffffffffffffffffffffffffffffffffff02191690556001820160006101000a81549073ffffffffffffffffffffffffffffffffffffffff02191690556002820160009055600382016000905560048201600090556005820160006101000a81549060ff02191690556005820160016101000a81549060ff0219169055505060016004826060015181548110610fed577f4e487b7100000000000000000000000000000000000000000000000000000000600052603260045260246000fd5b906000526020600020906006020160050160006101000a81548160ff02191690831515021790555060006004826060015181548110611055577f4e487b7100000000000000000000000000000000000000000000000000000000600052603260045260246000fd5b906000526020600020906006020160050160016101000a81548160ff021916908315150217905550600160009054906101000a900473ffffffffffffffffffffffffffffffffffffffff1673ffffffffffffffffffffffffffffffffffffffff166342842e0e826000015133866040518463ffffffff1660e01b81526004016110e0939291906121f4565b600060405180830381600087803b1580156110fa57600080fd5b505af115801561110e573d6000803e3d6000fd5b50505050611170836004836060015181548110611154577f4e487b7100000000000000000000000000000000000000000000000000000000600052603260045260246000fd5b90600052602060002090600602016002015483600001516117fb565b7f1aa1ee4be14aa12897a092a50c2f334382a543045e1fa1a17c619698b71674ee823360048460600151815481106111d1577f4e487b7100000000000000000000000000000000000000000000000000000000600052603260045260246000fd5b9060005260206000209060060201600201546004856060015181548110611221577f4e487b7100000000000000000000000000000000000000000000000000000000600052603260045260246000fd5b9060005260206000209060060201600401546004866060015181548110611271577f4e487b7100000000000000000000000000000000000000000000000000000000600052603260045260246000fd5b9060005260206000209060060201600301546040516112949594939291906122c3565b60405180910390a1505050565b3373ffffffffffffffffffffffffffffffffffffffff166004600560008581526020019081526020016000206003015481548110611308577f4e487b7100000000000000000000000000000000000000000000000000000000600052603260045260246000fd5b906000526020600020906006020160000160009054906101000a900473ffffffffffffffffffffffffffffffffffffffff1673ffffffffffffffffffffffffffffffffffffffff1614611390576040517f08c379a000000000000000000000000000000000000000000000000000000000815260040161138790612421565b60405180910390fd5b6103e88310156113d5576040517f08c379a00000000000000000000000000000000000000000000000000000000081526004016113cc90612501565b60405180910390fd5b600115156004600560008581526020019081526020016000206003015481548110611429577f4e487b7100000000000000000000000000000000000000000000000000000000600052603260045260246000fd5b906000526020600020906006020160050160019054906101000a900460ff1615151461148a576040517f08c379a000000000000000000000000000000000000000000000000000000000815260040161148190612521565b60405180910390fd5b6000151560046005600085815260200190815260200160002060030154815481106114de577f4e487b7100000000000000000000000000000000000000000000000000000000600052603260045260246000fd5b906000526020600020906006020160050160009054906101000a900460ff1615151461153f576040517f08c379a000000000000000000000000000000000000000000000000000000000815260040161153690612561565b60405180910390fd5b826004600560008581526020019081526020016000206003015481548110611590577f4e487b7100000000000000000000000000000000000000000000000000000000600052603260045260246000fd5b9060005260206000209060060201600201819055507f1b24a2fc4699c6fc65fe189be7dc682be029ba108d26a20d236860cbb27c04ba33848385600460056000898152602001908152602001600020600301548154811061161a577f4e487b7100000000000000000000000000000000000000000000000000000000600052603260045260246000fd5b90600052602060002090600602016003015460405161163d9594939291906123ae565b60405180910390a1505050565b6116526117f3565b73ffffffffffffffffffffffffffffffffffffffff16611670610bac565b73ffffffffffffffffffffffffffffffffffffffff16146116c6576040517f08c379a00000000000000000000000000000000000000000000000000000000081526004016116bd906124c1565b60405180910390fd5b600073ffffffffffffffffffffffffffffffffffffffff168173ffffffffffffffffffffffffffffffffffffffff161415611736576040517f08c379a000000000000000000000000000000000000000000000000000000000815260040161172d90612401565b60405180910390fd5b8073ffffffffffffffffffffffffffffffffffffffff1660008054906101000a900473ffffffffffffffffffffffffffffffffffffffff1673ffffffffffffffffffffffffffffffffffffffff167f8be0079c531659141344cd1fd0a4f28419497f9722a3daafe3b4186f6b6457e060405160405180910390a3806000806101000a81548173ffffffffffffffffffffffffffffffffffffffff021916908373ffffffffffffffffffffffffffffffffffffffff16021790555050565b600033905090565b6000600160009054906101000a900473ffffffffffffffffffffffffffffffffffffffff1673ffffffffffffffffffffffffffffffffffffffff16631af9cf49856040518263ffffffff1660e01b81526004016118589190612581565b60206040518083038186803b15801561187057600080fd5b505afa158015611884573d6000803e3d6000fd5b505050506040513d601f19601f820116820180604052508101906118a89190611d8c565b905060006118b68483611b65565b905060006118c385611b8f565b905060008183876118d49190612638565b6118de9190612638565b90506000600160009054906101000a900473ffffffffffffffffffffffffffffffffffffffff1673ffffffffffffffffffffffffffffffffffffffff1663d48e638a896040518263ffffffff1660e01b815260040161193d9190612581565b60206040518083038186803b15801561195557600080fd5b505afa158015611969573d6000803e3d6000fd5b505050506040513d601f19601f8201168201806040525081019061198d9190611c86565b9050600260009054906101000a900473ffffffffffffffffffffffffffffffffffffffff1673ffffffffffffffffffffffffffffffffffffffff16638a7644a885836040518363ffffffff1660e01b81526004016119eb91906121d9565b6000604051808303818588803b158015611a0457600080fd5b505af1158015611a18573d6000803e3d6000fd5b5050505050600260009054906101000a900473ffffffffffffffffffffffffffffffffffffffff1673ffffffffffffffffffffffffffffffffffffffff16638a7644a883886040518363ffffffff1660e01b8152600401611a7991906121d9565b6000604051808303818588803b158015611a9257600080fd5b505af1158015611aa6573d6000803e3d6000fd5b5050505050600260009054906101000a900473ffffffffffffffffffffffffffffffffffffffff1673ffffffffffffffffffffffffffffffffffffffff16638a7644a884600360009054906101000a900473ffffffffffffffffffffffffffffffffffffffff166040518363ffffffff1660e01b8152600401611b2991906121d9565b6000604051808303818588803b158015611b4257600080fd5b505af1158015611b56573d6000803e3d6000fd5b50505050505050505050505050565b60008060648360ff1685611b7991906125de565b611b8391906125ad565b90508091505092915050565b6000806064600284611ba191906125de565b611bab91906125ad565b905080915050919050565b600081359050611bc581612767565b92915050565b600081519050611bda81612767565b92915050565b600081519050611bef8161277e565b92915050565b600081519050611c0481612795565b92915050565b600081359050611c19816127ac565b92915050565b600081519050611c2e816127c3565b92915050565b600060208284031215611c4657600080fd5b6000611c5484828501611bb6565b91505092915050565b600060208284031215611c6f57600080fd5b6000611c7d84828501611bcb565b91505092915050565b600060208284031215611c9857600080fd5b6000611ca684828501611be0565b91505092915050565b600060208284031215611cc157600080fd5b6000611ccf84828501611bf5565b91505092915050565b600060208284031215611cea57600080fd5b6000611cf884828501611c0a565b91505092915050565b60008060408385031215611d1457600080fd5b6000611d2285828601611c0a565b9250506020611d3385828601611bb6565b9150509250929050565b600080600060608486031215611d5257600080fd5b6000611d6086828701611c0a565b9350506020611d7186828701611c0a565b9250506040611d8286828701611bb6565b9150509250925092565b600060208284031215611d9e57600080fd5b6000611dac84828501611c1f565b91505092915050565b611dbe816126d3565b82525050565b611dcd8161267e565b82525050565b611ddc8161266c565b82525050565b611deb81612690565b82525050565b6000611dfe60268361259c565b91507f4f776e61626c653a206e6577206f776e657220697320746865207a65726f206160008301527f64647265737300000000000000000000000000000000000000000000000000006020830152604082019050919050565b6000611e64600e8361259c565b91507f4d7573742062652073656c6c65720000000000000000000000000000000000006000830152602082019050919050565b6000611ea4601b8361259c565b91507f43616e6e6f742062757920796f7572206f776e20617274776f726b00000000006000830152602082019050919050565b6000611ee460298361259c565b91507f5061796d656e74206d75737420626520657175616c20746f207072696365206f60008301527f66207468652061727400000000000000000000000000000000000000000000006020830152604082019050919050565b6000611f4a60178361259c565b91507f4974656d20697320616c7265616479206f6e2073616c650000000000000000006000830152602082019050919050565b6000611f8a60148361259c565b91507f4e6f7420617070726f76656420746f2073656c6c0000000000000000000000006000830152602082019050919050565b6000611fca60208361259c565b91507f4f776e61626c653a2063616c6c6572206973206e6f7420746865206f776e65726000830152602082019050919050565b600061200a602b8361259c565b91507f4d757374206265207468652073656c6c65722f6f776e657220746f2072656d6f60008301527f766520616e206f666665720000000000000000000000000000000000000000006020830152604082019050919050565b6000612070602f8361259c565b91507f5072696365206d7573742062652067726561746572207468616e206f7220657160008301527f75616c20746f20313030302077656900000000000000000000000000000000006020830152604082019050919050565b60006120d660148361259c565b91507f4f66666572206d757374206265206163746976650000000000000000000000006000830152602082019050919050565b600061211660338361259c565b91507f4f6e6c7920746865206f776e6572206f662074686520617274776f726b20697360008301527f20616c6c6f77656420746f20646f2074686973000000000000000000000000006020830152604082019050919050565b600061217c60118361259c565b91507f4974656d20616c726561647920736f6c640000000000000000000000000000006000830152602082019050919050565b6121b8816126bc565b82525050565b60006020820190506121d36000830184611dd3565b92915050565b60006020820190506121ee6000830184611db5565b92915050565b60006060820190506122096000830186611db5565b6122166020830185611dd3565b61222360408301846121af565b949350505050565b600060e082019050612240600083018a611dc4565b61224d6020830189611dd3565b61225a60408301886121af565b61226760608301876121af565b61227460808301866121af565b61228160a0830185611de2565b61228e60c0830184611de2565b98975050505050505050565b60006040820190506122af6000830185611dd3565b6122bc6020830184611dd3565b9392505050565b600060a0820190506122d86000830188611dd3565b6122e56020830187611dd3565b6122f260408301866121af565b6122ff60608301856121af565b61230c60808301846121af565b9695505050505050565b600060c08201905061232b6000830189611dd3565b6123386020830188611dd3565b61234560408301876121af565b61235260608301866121af565b61235f60808301856121af565b61236c60a0830184611de2565b979650505050505050565b600060608201905061238c6000830186611dd3565b61239960208301856121af565b6123a66040830184611dd3565b949350505050565b600060a0820190506123c36000830188611dd3565b6123d060208301876121af565b6123dd6040830186611dd3565b6123ea60608301856121af565b6123f760808301846121af565b9695505050505050565b6000602082019050818103600083015261241a81611df1565b9050919050565b6000602082019050818103600083015261243a81611e57565b9050919050565b6000602082019050818103600083015261245a81611e97565b9050919050565b6000602082019050818103600083015261247a81611ed7565b9050919050565b6000602082019050818103600083015261249a81611f3d565b9050919050565b600060208201905081810360008301526124ba81611f7d565b9050919050565b600060208201905081810360008301526124da81611fbd565b9050919050565b600060208201905081810360008301526124fa81611ffd565b9050919050565b6000602082019050818103600083015261251a81612063565b9050919050565b6000602082019050818103600083015261253a816120c9565b9050919050565b6000602082019050818103600083015261255a81612109565b9050919050565b6000602082019050818103600083015261257a8161216f565b9050919050565b600060208201905061259660008301846121af565b92915050565b600082825260208201905092915050565b60006125b8826126bc565b91506125c3836126bc565b9250826125d3576125d2612738565b5b828204905092915050565b60006125e9826126bc565b91506125f4836126bc565b9250817fffffffffffffffffffffffffffffffffffffffffffffffffffffffffffffffff048311821515161561262d5761262c612709565b5b828202905092915050565b6000612643826126bc565b915061264e836126bc565b92508282101561266157612660612709565b5b828203905092915050565b60006126778261269c565b9050919050565b60006126898261269c565b9050919050565b60008115159050919050565b600073ffffffffffffffffffffffffffffffffffffffff82169050919050565b6000819050919050565b600060ff82169050919050565b60006126de826126e5565b9050919050565b60006126f0826126f7565b9050919050565b60006127028261269c565b9050919050565b7f4e487b7100000000000000000000000000000000000000000000000000000000600052601160045260246000fd5b7f4e487b7100000000000000000000000000000000000000000000000000000000600052601260045260246000fd5b6127708161266c565b811461277b57600080fd5b50565b6127878161267e565b811461279257600080fd5b50565b61279e81612690565b81146127a957600080fd5b50565b6127b5816126bc565b81146127c057600080fd5b50565b6127cc816126c6565b81146127d757600080fd5b5056fea2646970667358221220b689e990e6484ae1900b22cf59b625760b1a0514fefc968dddfd8e0db7df2e0a64736f6c63430008000033",
  "immutableReferences": {},
  "source": "// SPDX-License-Identifier: MIT\n\npragma solidity ^0.8.0;\n\nimport \"./node_modules/@openzeppelin/contracts/access/Ownable.sol\";\nimport \"./TaoDAONFT.sol\";\nimport \"./PaymentGateway.sol\";\n\ncontract TaoDAONFTMarketplace is Ownable {\n\n  TaoDAONFT private _TaoDAONFT;\n  PaymentGateway private _PaymentGateway;\n  address payable publisherWallet;\n\n  struct Offer{\n    address payable seller;\n    address tokenAddress;\n    uint256 price;\n    uint256 offerId;\n    uint256 tokenId;\n    bool isSold;\n    bool active;\n  }\n\n  Offer[] public offers;\n\n  mapping(uint256 => Offer) tokenIdToOffer;\n\n  event artworkAdded(address tokenAddress, address seller, uint256 price, uint256 tokenId, uint256 offerId, bool isSold);\n  event artworkSold(address tokenAddress, address buyer, uint256 price, uint256 tokenId, uint256 offerId);\n  event priceChanged(address owner, uint256 price, address tokenAddress, uint256 tokenId, uint256 offerId);\n  event artworkRemoved(address owner, uint256 tokenId, address tokenAddress);\n\n  constructor(address _TaoDAONFTContractAddress, address _PaymentGatewayAddress, address payable _publisherWallet) {\n    _setTaoDAONFTContract(_TaoDAONFTContractAddress);\n    _setPaymentGatewayContract(_PaymentGatewayAddress);\n    publisherWallet = _publisherWallet;\n  }\n\n  function _setPaymentGatewayContract(address _PaymentGatewayAddress) private onlyOwner{\n    _PaymentGateway = PaymentGateway(_PaymentGatewayAddress);\n  }\n\n  function _setTaoDAONFTContract(address _TaoDAONFTContractAddress) private onlyOwner{\n    _TaoDAONFT = TaoDAONFT(_TaoDAONFTContractAddress);\n  }\n\n  function setOffer(uint256 price, uint256 tokenId, address tokenAddress) public{\n    require(_TaoDAONFT.ownerOf(tokenId) == msg.sender, \"Only the owner of the artwork is allowed to do this\");\n    require(_TaoDAONFT.isApprovedForAll(msg.sender, address(this)) == true, \"Not approved to sell\");\n    require(price >= 1000, \"Price must be greater than or equal to 1000 wei\");\n    require(tokenIdToOffer[tokenId].active == false, \"Item is already on sale\");\n\n    uint256 offerId = offers.length;\n\n    Offer memory offer = Offer(payable(msg.sender), tokenAddress, price, offerId, tokenId, false, true);\n\n    tokenIdToOffer[tokenId] = offer;\n\n    offers.push(offer);\n\n    emit artworkAdded(address(_TaoDAONFT), msg.sender, price, tokenId, offerId, false);\n  }\n\n  function changePrice(uint256 newPrice, uint256 tokenId, address tokenAddress) public{\n    require(offers[tokenIdToOffer[tokenId].offerId].seller == msg.sender, \"Must be seller\");\n    require(newPrice >= 1000, \"Price must be greater than or equal to 1000 wei\");\n    require(offers[tokenIdToOffer[tokenId].offerId].active == true, \"Offer must be active\");\n    require(offers[tokenIdToOffer[tokenId].offerId].isSold == false, \"Item already sold\");\n\n    offers[tokenIdToOffer[tokenId].offerId].price = newPrice;\n\n    emit priceChanged(msg.sender, newPrice, tokenAddress, tokenId, offers[tokenIdToOffer[tokenId].offerId].offerId);\n  }\n\n  function removeOffer(uint256 tokenId, address tokenAddress) public{\n    require(offers[tokenIdToOffer[tokenId].offerId].seller == msg.sender, \"Must be the seller/owner to remove an offer\");\n\n    offers[tokenIdToOffer[tokenId].offerId].active = false;\n    delete tokenIdToOffer[tokenId];\n\n    emit artworkRemoved(msg.sender, tokenId, tokenAddress);\n  }\n\n  function buyArt(uint256 tokenId, address tokenAddress) public payable{\n    Offer memory offer = tokenIdToOffer[tokenId];\n    require(offers[offer.offerId].price == msg.value, \"Payment must be equal to price of the art\");\n    require(offers[offer.offerId].seller != msg.sender, \"Cannot buy your own artwork\");\n    require(offers[offer.offerId].active == true, \"Offer must be active\");\n\n    delete tokenIdToOffer[tokenId];\n    offers[offer.offerId].isSold = true;\n    offers[offer.offerId].active = false;\n\n    _TaoDAONFT.safeTransferFrom(offer.seller, msg.sender, tokenId);\n\n    _distributeFees(tokenId, offers[offer.offerId].price, offer.seller);\n\n    emit artworkSold(tokenAddress, msg.sender, offers[offer.offerId].price, offers[offer.offerId].tokenId, offers[offer.offerId].offerId);\n  }\n\n  function _computeCreatorFee(uint256 price, uint8 royalty) internal pure returns(uint256){\n    uint256 creatorFee = price * royalty / 100;\n    return creatorFee;\n  }\n\n  function _computePublisherFee(uint256 price) internal pure returns(uint256){\n    uint256 publisherFee = price * 2 / 100;\n    return publisherFee;\n  }\n\n  function _distributeFees(uint256 tokenId, uint256 price, address payable seller) internal{\n    uint8 creatorRoyalty = _TaoDAONFT.getRoyalty(tokenId);\n    uint256 creatorFee = _computeCreatorFee(price, creatorRoyalty);\n    uint256 publisherFee = _computePublisherFee(price);\n    uint256 payment = price - creatorFee - publisherFee;\n\n    address payable creator = _TaoDAONFT.getCreator(tokenId);\n\n    _PaymentGateway.sendPayment{value: creatorFee}(creator);\n    _PaymentGateway.sendPayment{value: payment}(seller);\n    _PaymentGateway.sendPayment{value: publisherFee}(publisherWallet);\n  }\n}\n",
  "sourcePath": "/home/ats/dev/taodao-nft/contracts/TaoDAONFTMarketplace.sol",
  "compiler": {
    "name": "solc",
    "version": "0.8.0+commit.c7dfd78e.Emscripten.clang"
  },
  "schemaVersion": "3.4.7",
  "updatedAt": "2022-05-19T05:27:19.099Z",
  "networkType": "ethereum",
  "devdoc": {
    "kind": "dev",
    "methods": {
      "owner()": {
        "details": "Returns the address of the current owner."
      },
      "renounceOwnership()": {
        "details": "Leaves the contract without owner. It will not be possible to call `onlyOwner` functions anymore. Can only be called by the current owner. NOTE: Renouncing ownership will leave the contract without an owner, thereby removing any functionality that is only available to the owner."
      },
      "transferOwnership(address)": {
        "details": "Transfers ownership of the contract to a new account (`newOwner`). Can only be called by the current owner."
      }
    },
    "version": 1
  },
  "userdoc": {
    "kind": "user",
    "methods": {},
    "version": 1
  }
}